:020000040800F2
:10000000780500206501000821190008F513000893
:100010001D190008DD080008C120000800000000CC
:10002000000000000000000000000000691E000841
:10003000F313000800000000D31C0008551F00083F
:100040007F0100087F0100087F0100087F01000890
:100050007F0100087F0100087F0100087F01000880
:100060007F0100087F0100087F0100087F01000870
:100070007F0100087F0100087F0100087F01000860
:100080007F0100087F010008000000007F010008D8
:100090007F0100087F0100087F0100087F01000840
:1000A0007F0100087F0100087F0100087F01000830
:1000B0007F010008000000007F0100080000000030
:1000C0007F010008000000007F0100087F01000898
:1000D0007F01000800000000000000000000000098
:1000E00000000000000000007F0100080000000088
:1000F0000000000000000000000000000000000000
:100100007F01000800000000000000007F010008DF
:1001100000000000000000000000000000000000DF
:1001200000000000000000000000000000000000CF
:1001300000000000000000000000000000000000BF
:100140000000000000000000000000007F01000827
:10015000DFF80CD000F03AFA004800478526000886
:10016000780500200648804706480047FEE7FEE77E
:10017000FEE7FEE7FEE7FEE7FEE7FEE7FEE7FEE757
:100180006D1F0008510100082DE9FE4F81EA0304AC
:1001900004F0004421F0004100944FF0000B23F0E4
:1001A000004350EA01045ED052EA03045BD0C3F37B
:1001B0000A54C1F30A552C44A4F2F3340194A0FB71
:1001C0000254C1F3130141F48011C3F3130343F448
:1001D000801301FB024400FB034E840A970A44EAA1
:1001E000815447EA8357A4FB076802958D0A05FBF3
:1001F00007854FEA932C04FB0C542705029D4FEA18
:10020000065847EA1637B5EB08056EEB070C870E64
:10021000920E47EA811742EA8312A7FB0201B6EB6E
:100220000B0164EB00042B0D43EA0C335E1844EB26
:100230001C50DA465146E7FB0201C5F313044FEAAE
:100240000B3343EA14534FEA0432019C43EA06039A
:10025000A4F10C040294009CCDE900B400F067F90D
:1002600003B0BDE8F08F00200146F9E72DE9F04D1D
:1002700081EA030404F0004B21F0004514464FF0DE
:10028000000A23F0004150EA050220D054EA01029E
:100290001DD0C5F30A570246C5F31303C1F313007B
:1002A000C1F30A5640F4801543F48013A7EB060807
:1002B000101BD64608F2FD3873EB050002D308F197
:1002C000010801E092185B41B8F1000F03DA002049
:1002D0000146BDE8F08D00204FF4801106468446AB
:1002E0000EE0171B73EB050705D3121B63EB050329
:1002F00006434CEA010C49084FEA300092185B4172
:1003000050EA0107EDD152EA030012D082EA04005C
:1003100083EA0501084305D0101BAB4106D2012238
:10032000002306E000224FF0004302E06FF00102DC
:1003300053101AEB06004CEB085110EB0A0041EB8E
:100340000B01BDE8F04D00F0E3B80EB5C10F80EA37
:10035000E0700844CA07002140F233438DE80E00E4
:100360000A460B4600F0E3F803B000BD0EB540F2BC
:10037000334102910021CDE900110A460B4600F0FD
:10038000D6F803B000BD00F0004220F00040C10DDF
:10039000C0F3160040F400007F2901DA0020704706
:1003A000962903DCC1F19601C84001E096398840E6
:1003B000002AF4D04042704720F00040C10DC0F345
:1003C000160040F400007F2901DA002070479629CA
:1003D00003DCC1F19601C8407047963988407047E8
:1003E00001F0004330B421F0004150EA010206D090
:1003F0000A0DA2F56072C1F31301002A02DC30BCC1
:1004000000207047440F44EAC104C100E01830BC2A
:1004100000EBC25000F045B8002801DBC0F10040FD
:10042000002901DBC1F1004181427047002801DB56
:10043000C0F10040002901DBC1F100418842704752
:100440002DE9F05F0546002092469B468846064609
:10045000814640241BE0284641464746224600F09C
:10046000D6F853465A46C01A914110D31146184641
:10047000224600F0BDF82D1A67EB01084F462246D0
:100480000120002100F0B4F817EB00094E41201EB6
:10049000A4F10104DFDC484631462A464346BDE864
:1004A000F09F0029A8BF7047401C490008BF20F0FA
:1004B0000100704710B4B0FA80FC00FA0CF050EA6A
:1004C000010404BF10BC704749B1CCF1200421FAEB
:1004D00004F411FA0CF118BF012121430843A3EBE6
:1004E0000C01CB1D4FEA00614FEA102042BF0020F3
:1004F00010BC704700EBC35010440029A4BF10BCCF
:100500007047401C490008BF20F0010010BC704734
:1005100010B5141E73F1000408DA401C41F100010B
:1005200092185B411A4301D120F0010010BD2DE962
:10053000F04D92469B4611B1B1FA81F202E0B0FA59
:1005400080F22032904600F053F804460F4640EA0D
:100550000A0041EA0B0153465A46084313D011469C
:1005600053EA010019D0C8F14002504600F04FF89C
:1005700005460E4650465946424600F039F80843B3
:1005800005D0012004E020463946BDE8F08D00206A
:10059000054346EAE0762C4337430A986305E40AAC
:1005A000A0EB08000022FD0A44EA47540A3002D5B5
:1005B00000200146E9E7010510196941DDE9084518
:1005C00000196941BDE8F04DA2E70000064C074D57
:1005D00006E0E06840F0010394E807009847103413
:1005E000AC42F6D3FFF7B8FD9C5B0008BC5B00088B
:1005F000202A04DB203A00FA02F1002070479140E3
:10060000C2F1200320FA03F3194390407047202AD7
:1006100004DB203A21FA02F00021704721FA02F3AC
:10062000D040C2F1200291400843194670470000B3
:1006300010B540F2135002F0D5FC03230022012133
:10064000044801F0BAFF032300221146014801F0DB
:10065000DBFF10BD0008004810B50121114801F072
:10066000A0FF00F017F90223002201210D4801F03C
:10067000A4FF0223002211460A4801F0C5FF02210F
:10068000084801F090FF00F005F90121054801F04C
:100690008AFF00F0FFF80121024801F082FF00F01C
:1006A000F9F810BD0008004870B5082500240223A1
:1006B00001220021134801F080FF0221114801F0BE
:1006C00072FF14E06006040E01210E4801F069FF7C
:1006D00000F0E0F801210B4801F065FF00F0DAF8C6
:1006E0000221084801F061FF08B144F00104281E0E
:1006F000A5F10101CDB2E5D10121024801F051FF80
:10070000204670BD0008004870B504460825022345
:1007100000220121174801F050FF02230022114658
:10072000144801F071FF1BE00121124801F039FF6C
:1007300000F0B0F804F0800020B102210D4801F073
:1007400032FF03E002210B4801F02BFF6006040E8C
:1007500000F0A0F80121074801F025FF00F09AF809
:10076000281EA5F10101CDB2DED10121014801F021
:1007700018FF70BD0008004810B5022300220121B7
:10078000174801F01AFF022300221146144801F015
:100790003BFF0221124801F006FF0121104801F041
:1007A00002FF00F077F802210D4801F0FEFE08B9C3
:1007B000002010BD02210A4801F0F3FE00F06AF8A3
:1007C0000221074801F0F1FE08B10020F1E7022103
:1007D000034801F0E6FE00F05DF80120E9E70000C3
:1007E0000008004810B5022300220121104801F042
:1007F000E4FE0223002211460D4801F005FF01210D
:100800000B4801F0CEFE00F045F80221084801F047
:10081000C8FE00F03FF80121054801F0C4FE00F0D9
:1008200039F80221024801F0BEFE00F033F810BD95
:100830000008004810B50121154801F0B2FE00F093
:1008400029F8022301220021114801F0B6FE0221FD
:100850000F4801F0A8FE00F01DF801210C4801F03E
:10086000A2FE00F017F80221094801F09EFE38B1FF
:100870000121074801F095FE00F00CF8002010BDA2
:100880000121034801F08DFE00F004F80120F6E795
:10089000000800481E2001E0411EC8B20028FBD11C
:1008A000704710B50446FFF767FF08B9002010BD78
:1008B0004620FFF729FFFFF7BDFF18B9FFF792FFAA
:1008C0000020F4E72046FFF71FFFFFF7B3FFFFF715
:1008D00089FF052001F00CFE0120E8E700BFFEE7DC
:1008E0002DE9F047002400250026002701F06AFAD0
:1008F000FD48B0F90010FD4800F008FDFB48007805
:100900002D2817D1F948407800F00F00642110FB22
:1009100001F0F649897801F00F0101EB810100EB4C
:100920004100F249C97801F00F0108444042F04902
:10093000088015E0ED48407800F00F00642110FBBE
:1009400001F0EA49897801F00F0101EB810100EB28
:100950004100E649C97801F00F010844E4490880E4
:10096000582001F083FAE348B0F90010DF4800F0A6
:10097000CDFCDE4800782D2817D1DC48407800F007
:100980000F00642110FB01F0D849897801F00F01B4
:1009900001EB810100EB4100D449C97801F00F015E
:1009A00008444042D449088015E0D048407800F01F
:1009B0000F00642110FB01F0CC49897801F00F0190
:1009C00001EB810100EB4100C849C97801F00F013A
:1009D0000844C9490880592001F048FAC748B0F9CD
:1009E0000010C24800F092FCC04800782D2817D1B2
:1009F000BE48407800F00F00642110FB01F0BB49B5
:100A0000897801F00F0101EB810100EB4100B7494A
:100A1000C97801F00F0108444042B949088015E047
:100A2000B248407800F00F00642110FB01F0AF499C
:100A3000897801F00F0101EB810100EB4100AB4926
:100A4000C97801F00F010844AD4908805A2001F02F
:100A50000DFAACA001F09EFBA548B0F90000AA4930
:100A60000880A548B0F900004880A548B0F900000A
:100A70008880A648008800B288810846B0F90050F6
:100A8000B0F90260B0F90470A14800880A2808D1C2
:100A900000209F4908809F48007810B901209D4997
:100AA00008709D480078052802D100209A490870F6
:100AB0009A489949097820F8115099489649097837
:100AC00020F8116097489449097820F811709648E9
:100AD0000078052814DA95488D49098820F81150C6
:100AE00022308B49098820F8116022308849098812
:100AF00020F811708C480078401C8B49087055E034
:100B00008648B0F900008549B1F9021008448349CC
:100B1000B1F9041008448149B1F9061008447F492D
:100B2000B1F908100844052190FBF1F000B27F49AB
:100B3000774A128821F812007948B0F90000784904
:100B4000B1F9021008447649B1F904100844734918
:100B5000B1F9061008447149B1F90810084405219B
:100B600090FBF1F001B271482230694A128820F8F6
:100B700012106C48B0F900006A49B1F9021008443B
:100B80006849B1F9041008446449B1F906100844F1
:100B90006249B1F908100844052190FBF1F001B257
:100BA000624844305A4A128820F812105948007896
:100BB00001287CD15D48B0F9160055490988884262
:100BC00022D05A48B0F91A005149098888421BD0EE
:100BD0005648B0F938004E490988884214D0534825
:100BE000B0F93C004A49098888420DD04F48B0F915
:100BF0005A0047490988884206D04C48B0F95E003F
:100C0000434909888842D4D1DFF8209199F8160029
:100C100099F81A1099F8382099F83C3099F85AC088
:100C200099F85E80B9F91690DFF8E4A0BAF800A050
:100C3000D14505D16FF0C709DFF8F0A0AAF81490EC
:100C4000DFF8E890B9F91A90DFF8C4A0BAF800A06C
:100C5000D14505D14FF0C809DFF8D0A0AAF8189007
:100C6000DFF8C890B9F93890DFF8A4A0BAF800A06E
:100C7000D14505D16FF0C70ADFF8B090A9F836A0CA
:100C8000DFF8A890B9F93C90DFF884A0BAF800A08A
:100C9000D14505D14FF0C80ADFF89090A9F83AA0E5
:100CA000DFF88890B9F95A90DFF864A000E013E10A
:100CB000BAF800A0D14505D16FF0C70ADFF86C90F3
:100CC000A9F858A0DFF86490B9F95E90DFF840A069
:100CD000BAF800A0D14505D14FF0C80ADFF84C9012
:100CE000A9F85CA00024E5E06E0000206000002070
:100CF0000400002070000020060000207200002088
:100D0000080000200D0A0000800000204A0000209A
:100D10000A0000204E0000200C0000200E000020E1
:100D200022000020360000204D000020FC000020A2
:100D3000DFF89C95B9F91690DFF898A5BAF800A0ED
:100D4000D14512D1DFF8889539F91490DFF880A5E4
:100D5000BAF914A0D14508DBDFF8749539F814907E
:100D6000DFF86CA5AAF814902046DFF86495B9F96D
:100D70001A90DFF860A5BAF800A0D14512D1DFF8CB
:100D8000509539F91490DFF848A5BAF918A0D14563
:100D900008DCDFF83C9539F81490DFF834A5AAF8A0
:100DA00018902146DFF82895B9F93890DFF824A586
:100DB000BAF800A0D14516D1DFF8149509F122093F
:100DC00039F914A0DFF80895B9F93690CA450ADB5D
:100DD000DFF8FC9409F1220939F814A0DFF8F09447
:100DE000A9F836A02246DFF8E894B9F93C90DFF87C
:100DF000E4A4BAF800A0D14516D1DFF8D49409F1E3
:100E0000220939F914A0DFF8C894B9F93A90CA4513
:100E10000ADCDFF8BC9409F1220939F814A0DFF8E4
:100E2000B094A9F83AA02346DFF8A494B9F95A90EF
:100E3000DFF8A0A4BAF800A0D14516D1DFF890944D
:100E400009F1440939F914A0DFF88494B9F95890EC
:100E5000CA450ADBDFF8789409F1440939F814A08F
:100E6000DFF86C94A9F858A0A446DFF86494B9F9A7
:100E70005E90DFF860A4BAF800A0D14516D1DFF883
:100E8000509409F1440939F914A0DFF84494B9F9F0
:100E90005C90CA450ADCDFF8389409F1440939F856
:100EA00014A0DFF82C94A9F85CA0A04604F1010975
:100EB00009F0FF040A2CFFF63BAFDFF81494A9F801
:100EC0001600A9F81A10A9F83820A9F83C30A9F89A
:100ED0005AC0A9F85E8000BFFD48FE49098830F974
:100EE0001100FB49B1F9141088420ADBF848F949AE
:100EF000098830F81100F6498882F648008800B267
:100F0000C882F348F349098830F91100F049B1F972
:100F1000181088420ADCEE48EE49098830F81100C2
:100F2000EB490883EB48008800B2C882E8482230C9
:100F3000E849098830F911102238B0F936008142A9
:100F40000CDBE3482230E349098830F811102238DD
:100F5000C186E048008801B2DD480187DC482230C4
:100F6000DC49098830F911102238B0F93A00814281
:100F70000CDCD7482230D749098830F811102238C4
:100F80004187D448008801B2D1488187D048443095
:100F9000D049098830F911104438B0F9580081421D
:100FA0000EDBCB484430CB49098830F81110443867
:100FB000A0F85810C748008801B2C548A0F85A10D8
:100FC000C3484430C349098830F911104438B0F996
:100FD0005C0081420EDCBE484430BE49098830F8CE
:100FE00011104438A0F85C10BA48008801B2B84823
:100FF000A0F85E10B649B1F91410B54AB2F918203C
:10100000881800EBD071491009B2B14A918311469A
:10101000B1F93620B1F93A10501800EBD0714910EF
:101020000AB2AB49CA87B1F95820B1F95C1050181F
:1010300000EBD07149100AB2A549A1F8602008461A
:10104000B0F91C10B0F9140001EB4000032190FB33
:10105000F1F000B29E49C8830846B0F93E10B0F9DD
:10106000360001EB4000032190FBF1F001B29848FB
:10107000A0F84010B0F96010B0F9580001EB400042
:10108000032190FBF1F001B29148A0F86210B0F991
:101090001C10B0F9180001EB4000032190FBF1F0A7
:1010A00000B28B4908840846B0F93E10B0F93A0006
:1010B00001EB4000032190FBF1F001B28448A0F85D
:1010C0004210B0F96010B0F95C0001EB4000032160
:1010D00090FBF1F001B27E48A0F8641000F05EF9D8
:1010E0007D49087008460078012804D0022829D0DC
:1010F00003287AD14FE076487649098830F9110003
:101100007349B1F91E10884205DD7448007810B9A2
:101110000120724908706E486E49098830F9110043
:101120006B49B1F9201088420BDA6C48007801282D
:1011300007D100206949087069480088401C684947
:10114000088053E0624822306249098830F9111062
:101150002238B0F94000814205DD6048007810B9BE
:1011600001205E4908705A4822305A49098830F9EE
:1011700011102238B0F9420081420BDA574800784A
:10118000012807D100205549087055480088401CA7
:10119000534908802AE04E4844304E49098830F9C6
:1011A00011104438B0F96200814205DD4B480078E7
:1011B00010B901204949087045484430454909881B
:1011C00030F911104438B0F9640081420BDA434819
:1011D0000078012807D10020404908704048008865
:1011E000401C3F49088001E0FFE700BF00BF3848CE
:1011F0003849098830F9110000123A498881344889
:101200003449098810F811003649C8813048223025
:101210003049098830F911000012324908822C48FF
:1012200022302C49098810F811002E49488228489C
:1012300044302849098830F9110000122949888270
:10124000234844302349098810F811002549C882F1
:101250001F48B0F91C00001208831D48007F488316
:101260001B48B0F91E00001288831948807FC8838C
:101270001748B0F9200000120884154890F82000A3
:1012800048841348B0F91400001288841048007D87
:10129000C8840F48B0F91800001208850C48007E79
:1012A00048850F48008800B288850C480078C885BA
:1012B00000200886488607480088401C05490880A9
:1012C00009480078401C084908700648808D0DE0E8
:1012D000FC0000200A0000204F0000204C000020ED
:1012E0004A000020800000200C00002081B202A0F3
:1012F00000F050FFBDE8F087436F756E745374655E
:1013000070733A202569200D0A0000002DE9F0478E
:1013100081460C462046FFF718F807461D4A1E4B2B
:10132000FEF732FF0546FFF75BF882465046FFF7AF
:101330002AF804B2002C05DA604204B22D2089F8A4
:10134000000002E0202089F80000642094FBF0F007
:101350003030C1B209F1010081460170642094FB74
:10136000F0F100FB11440A2094FBF0F03030C1B2E0
:1013700009F10100814601700A2094FBF0F100FBA5
:10138000114404F13000C1B209F10100814601703D
:10139000BDE8F087EC51B81E85EBB13FF0B50146D2
:1013A0000024002500230026888A0F8BC01B04B26E
:1013B000CF8E488F381A05B25820475A5C20405AC1
:1013C000381A03B2AC4207DD9C4202DD01262246F8
:1013D00009E003261A4606E09D4202DD02262A465F
:1013E00001E003261A46322A01DD3046F0BD002016
:1013F000FCE7704700BFFEE710B540F2135001F064
:10140000F1FD4FF4F85300220121054801F0D5F811
:101410004FF4F85300221146014801F0F5F810BDD1
:101420000008004810B54FF40071144801F0B9F8F5
:1014300000F03CF94FF48063002201210F4801F0D5
:10144000BCF84FF48063002211460C4801F0DCF830
:101450004FF48061094801F0A6F800F027F94FF435
:101460000071064801F09FF800F020F94FF4007178
:10147000024801F096F800F019F910BD0008004884
:1014800070B508250024EB0101220021154801F068
:1014900094F8E901134801F086F817E06006040E9D
:1014A0004FF400710F4801F07CF800F0FFF84FF4A2
:1014B00000710C4801F077F800F0F8F84FF4806103
:1014C000084801F072F808B144F00104281EA5F1A3
:1014D0000101CDB2E2D14FF40071024801F061F890
:1014E000204670BD0008004870B504460825EB0191
:1014F000002201211A4801F060F8EB010022114698
:10150000174801F081F81FE04FF40071144801F012
:1015100048F800F0CBF804F0800028B14FF4806167
:101520000F4801F040F804E04FF480610C4801F0EE
:1015300038F86006040E00F0B9F84FF4007108485E
:1015400001F031F800F0B2F8281EA5F10101CDB28A
:10155000DAD14FF40071024801F023F870BD0000A9
:101560000008004810B54FF48063002201211B4899
:1015700001F023F84FF4806300221146174801F070
:1015800043F84FF48061154801F00DF84FF40071F5
:10159000124801F008F800F089F84FF480610F4814
:1015A00001F003F808B9002010BD4FF480610B482A
:1015B00000F0F7FF00F07AF84FF48061074800F080
:1015C000F4FF08B10020EFE74FF48061034800F01A
:1015D000E8FF00F06BF80120E6E700000008004893
:1015E00010B54FF4806300220121134800F0E5FF9D
:1015F0004FF48063002211460F4801F005F84FF4C4
:1016000000710D4800F0CDFF00F050F84FF48061FC
:10161000094800F0C6FF00F049F84FF40071064891
:1016200000F0C1FF00F042F84FF48061024800F082
:10163000BAFF00F03BF810BD0008004810B54FF4A9
:101640000071194800F0ADFF00F030F84FF48063EE
:1016500001220021144800F0B0FF4FF480611248CD
:1016600000F0A1FF00F022F84FF400710E4800F0E6
:101670009AFF00F01BF84FF480610B4800F095FFD3
:1016800040B14FF40071084800F08BFF00F00EF8F5
:10169000002010BD4FF40071034800F082FF00F0FD
:1016A00005F80120F5E70000000800481E2001E0D1
:1016B000411EC8B20028FBD17047000010B540F2AF
:1016C000135001F08FFCC02300220121044800F0D8
:1016D00074FFC02300221146014800F095FF10BDA1
:1016E0000008004810B58023002201210F4800F0B7
:1016F00064FF8023002211460C4800F085FF402142
:101700000A4800F050FF8021084800F04CFF0120FB
:1017100000F024FC8021054800F043FF012000F088
:101720001DFC4021014800F03CFF10BD00080048AE
:1017300010B58023002201210F4800F03EFF8023D6
:10174000002211460C4800F05FFF40210A4800F0DB
:1017500028FF8021084800F024FF012000F0FEFB54
:101760004021054800F01FFF8021034800F01BFFC7
:10177000012000F0F3FB10BD0008004810B5002464
:10178000802301220021124800F017FF8021104819
:1017900000F009FF012000F0E1FB40210C4800F0BF
:1017A00002FF012000F0DAFB06E0601CC4B2FA2C54
:1017B00002DDFFF7BDFF10BD8021054800F0F5FEFA
:1017C0000028F2D14021024800F0EBFE00BFF2E712
:1017D0000008004810B5FEF72BFFC82000F088FE77
:1017E0000120FFF75EF80720FFF75BF81120FFF7F5
:1017F00058F8C82000F07CFE10BD000010B540F283
:10180000125001F0EFFB4FF4C06001F0EBFB8023BE
:1018100000221146014800F0D0FE10BD000400482F
:1018200010B5FFF7E9FD4FF48071154800F0BBFEDD
:101830004FF48051124800F0B4FE4FF4006110489C
:1018400000F0B1FEC82000F053FE0F222021D2206C
:1018500000F05CFB00222121D22000F057FB08227F
:101860002221D22000F052FB30222321D22000F08E
:101870004DFB00222421D22000F048FB10BD0000C7
:101880000008004810B540F21C7001F0ABFB01F0FD
:101890001DF94FF4106001F0F9FA4FF4106001F0F7
:1018A00005FB4FF4007001F0CDFB40F28F100649AC
:1018B000086063200549086040F60F0001F092FBC4
:1018C00001F08EFC10BD00007800002074000020A4
:1018D00010B540F2125001F085FB4FF4E063002296
:1018E00001210D4800F069FE4FF4E063002211462B
:1018F000094800F089FE4FF48061074800F051FE6E
:101900004FF48071044800F04CFE4FF4007102481F
:1019100000F047FE10BD00000004004800BFFEE7D5
:10192000704770B5002419E004F1B001C8B201217C
:1019300000F0C3F90121002000F0BFF901211020BF
:1019400000F0BBF9002505E00021084600F0B5F9DC
:10195000681CC5B2802DF7DB601CC4B2082CE3DB29
:1019600070BD2DE9F05F06460F4690461C46DDF837
:1019700028A04FF0000BE11704EB5171C910A4EB44
:10198000C10131B92046E11704EB5171C1F3C7051C
:1019900006E02046E11704EB5171C910491CCDB295
:1019A0003D4615E02946304600F070F9B1460BE09F
:1019B00059460BF1010B1AF80100002100F07DF9E6
:1019C00009F1010000F0FF09C145F1DB681CC5B257
:1019D000A542E7DBBDE8F09F2DE9F04707460E463C
:1019E0009046994600250024A8F12000C5B27F2F1B
:1019F00002D90027B01CC6B23146384600F046F97D
:101A0000002408E004EB0511154A505C002100F0A9
:101A100054F9601CC4B2082CF4DB701CC1B2384607
:101A200000F034F9002417E0B9F1010F0AD104EBFA
:101A3000051108310A4A515C41F08000002100F094
:101A40003CF907E004EB05110831054A505C002120
:101A500000F033F9601CC4B2082CE5DBBDE8F08768
:101A6000745200082DE9FF4F81B0064691461F468B
:101A7000DDE90E4A00200090002556E0781B401E4C
:101A8000C1B20A2001F016F8B9FBF0F00A21B0FB50
:101A9000F1F201FB1208009820BB781EA84221DD5C
:101AA000B8F1000F1CD1BAF1010F0CD1A34604EB21
:101AB000DB71491001FB0561C8B201233022029994
:101AC000FFF78AFF0BE0A34604EBDB71491001FB33
:101AD0000561C8B2002330220299FFF77DFF22E0A2
:101AE00001200090BAF1010F0ED1A34604EBDB7187
:101AF000491001FB0561C8B208F13001CAB20123E7
:101B00000299FFF769FF0DE0A34604EBDB71491072
:101B100001FB0561C8B208F13001CAB20023029985
:101B2000FFF75AFF00BF681CC5B2BD42A6DB05B077
:101B3000BDE8F08F2DE9F04104460F46154600261A
:101B40000FE0AA5D002339462046FFF745FF04F168
:101B50000800C4B2782C02DD0024B81CC7B2701C87
:101B6000C6B2A85D0028ECD1BDE8F08110B5FFF742
:101B7000A5FDC82000F0BCFC4021434800F013FD47
:101B80008021414800F00FFD4FF4487000F0B0FC98
:101B90000121AE2000F091F80121002000F08DF825
:101BA0000121102000F089F80121402000F085F883
:101BB0000121812000F081F80121CF2000F07DF883
:101BC0000121A12000F079F80121C82000F075F86A
:101BD0000121A62000F071F80121A82000F06DF885
:101BE00001213F2000F069F80121D32000F065F8C1
:101BF0000121002000F061F80121D52000F05DF8FE
:101C00000121802000F059F80121D92000F055F879
:101C10000121F12000F051F80121DA2000F04DF807
:101C20000121122000F049F80121DB2000F045F8E5
:101C30000121402000F041F80121202000F03DF872
:101C40000121022000F039F801218D2000F035F843
:101C50000121142000F031F80121A42000F02DF81A
:101C60000121A62000F029F80121AF2000F025F87D
:101C70000121AF2000F021F8FFF753FE00210846B4
:101C800000F004F810BD00000008004870B50446DC
:101C90000D4605F1B001C8B2012100F00EF8102187
:101CA00041EA1410012100F008F804F00F0141F09E
:101CB0000100012100F001F870BD70B505460C4629
:101CC0001CB1284600F03AFA02E0284600F04CFA2F
:101CD00070BD704708B5194801F0C2F9FFF721FE41
:101CE00017A200210846FFF725FF1AA203210020B2
:101CF000FFF720FF11488078009010484378027861
:101D000019A1204800F056FA1E4A06210420FFF7C8
:101D100011FF40F6B83000F0EBFBFFF702FE1A4867
:101D200008238022002100900846FFF71AFE41F2A6
:101D3000883000F0DDFBFFF7F4FD08BDC000002097
:101D400053746570436F756E7465722056312E3012
:101D50000000000042793A68616E796567757869BC
:101D60006E67776F00000000446174653A32302579
:101D7000302E32782D25302E32782D25302E3278A7
:101D800000000000D4000020CC4B000810B5FEF786
:101D9000F3FC4720FEF7B8FCFEF74CFDFEF784FC91
:101DA0000446FEF747FD4FF6FF7000EA0424FEF7F5
:101DB0007BFC204484B2FEF74FFCFEF713FD204667
:101DC00010BD000010B52821D22000F071F8214983
:101DD00008702921D22000F06BF81E49487008468F
:101DE0000078497840EA012000B21B4908802A2186
:101DF000D22000F05DF8174988702B21D22000F026
:101E000057F81449C87008468078C97840EA01201C
:101E100000B2124908802C21D22000F049F80D4967
:101E200008712D21D22000F043F80A494871084674
:101E30000079497940EA012000B209490880064842
:101E4000B0F900100748FFF761FA582000F00EF8CB
:101E500010BD0000640000206E0000207000002013
:101E600072000020600000207047000070B5054639
:101E70000D49284600F034FE0B493A2000F030FEB0
:101E8000002406E00949085D074900F029FE601CAE
:101E9000C4B2042CF6DB0449202000F021FE0249E4
:101EA000202000F01DFE70BD7C000020600000209E
:101EB00070B504460D46FFF755FB08B9002070BD0C
:101EC0002046FFF711FBFFF7B9FB30B9FFF788FB9E
:101ED00001200D4908700020F1E72846FFF704FBB8
:101EE000FFF7ACFBFFF73EFB611CC8B2FFF7FCFA43
:101EF000FFF7A4FBFFF7C4FA0646FFF793FAFFF7D4
:101F00006FFB3046DBE700006C00002070B5064632
:101F10000C461546FFF726FB08B9002070BD304679
:101F2000FFF7E2FAFFF78AFB18B9FFF759FB002029
:101F3000F4E72046FFF7D8FAFFF780FB2846FFF7C3
:101F4000D3FAFFF77BFBFFF74BFB052000F0D0FA3D
:101F50000120E3E710B500F0D5FA10BD002101E043
:101F600000BF491C8842FBD87047000010B52A48C2
:101F7000006840F001002849086000BF264800685A
:101F800000F002000028F9D02348406823490840A7
:101F90002149486008464068214908401E49486078
:101FA0000846406820F4400048600846006B1D4920
:101FB000084019490863084600681B49084016494B
:101FC00008600846C06A194908401349C8620846B3
:101FD000006B40F2031188430F4908630846006B09
:101FE00020F4803008630846006B20F0004008634E
:101FF0000846406B20F0010048630748C030006885
:1020000020F48030C1F8C000002088600249CC3143
:10201000086001F0ABFA10BD001002400C00FF0890
:10202000FFFFC277BFFFFFBFFFFFF2FEF0FFFF3FE2
:1020300010B540F2115000F0D5FF40F2117000F0E1
:10204000D1FF042201214FF0904000F07BFA0822DA
:1020500001214FF0904000F075FA04230122022183
:102060004FF0904000F0A9FA0423012200214FF024
:10207000904000F0C9FA0823012202214FF090405D
:1020800000F09BFA0823012200214FF0904000F05D
:10209000BBFA0A4801F0E2FA4FF4E131074801F0D7
:1020A00091FA0421054801F081FB0821034801F061
:1020B00085FB024801F0F2FA10BD00000044004028
:1020C00000BFFEE72DE9F04105462C4680230022A3
:1020D0000121194800F071FA8023002211461648A8
:1020E00000F092FA4021144800F05BFA00261FE04D
:1020F000274607F08007802F04D180210E4800F08A
:1021000052FA03E080210C4800F04BFA6006040EFE
:102110000120FFF723FF4021074800F044FA012087
:10212000FFF71CFF4021044800F03BFA701CC6B2C8
:10213000082EDDDBBDE8F0810008004810B504463C
:10214000FFF7D0FA7820FFF7BDFFFFF717FB00205D
:10215000FFF7B8FFFFF712FB2046FFF7B3FFFFF7CB
:102160000DFBFFF7E5FA10BD10B50446FFF7BAFA0C
:102170007820FFF7A7FFFFF701FB4020FFF7A2FF42
:10218000FFF7FCFA2046FFF79DFFFFF7F7FAFFF78E
:10219000CFFA10BD0FB4054B10B503A9044A02983D
:1021A00000F040F810BC5DF814FB00001D2500088D
:1021B0007C0000200FB4084B10B504A902AA0398B4
:1021C00000F030F8044602A9002000F08BF9204608
:1021D00010BC5DF814FB0000E524000810B50028D1
:1021E00004DB0A07130E054A135406E00A07140E0F
:1021F000034A00F00F031B1FD45410BD00E400E09D
:1022000018ED00E002E008C8121F08C1002AFAD148
:1022100070477047002001E001C1121F002AFBD166
:10222000704700002DE9FF4F8DB09B460F460446D6
:10223000002606E025280BD05A460F999047641CCB
:10224000761C20780028F5D111B03046BDE8F08F1B
:102250000025A8460122984900E0054314F8013FF3
:10226000203B02FA03F00842F7D120782E2817D13C
:1022700014F8010F45F004052A280ED06FF02F0244
:102280002078A0F1300109290AD808EB880102EB77
:10229000410100EB0108641CF2E757F8048B641C51
:1022A00020786C280DD004DC4C2812D06A2811D17B
:1022B00004E074280DD07A280CD10AE045F400150A
:1022C00007E0617845F48015814202D1641C05F570
:1022D0008015641C2278692A45D008DC002AB3D016
:1022E000582A69D0632A10D0642A08D13BE0702AAA
:1022F00067D0732A13D0752A5CD0782A5CD0104638
:102300005A460F999047761CD3E017F8040B8DF8C6
:10231000000000208DF80100E946012003E057F895
:10232000049B4FF0FF3069074FF0000501D40AE02D
:102330006D1C45450DDA8542FADB19F805100029B8
:10234000F6D106E06D1C8542FCDB19F8051000296A
:10235000F8D12E4404E019F8010B5A460F99904722
:102360006D1EF8D2A5E00A200021CDE90801C5F3D1
:10237000025002280DD001CFC117031E71F10003D6
:102380000DDA4FF0000CD0EB0C006CEB01012D23AB
:1023900008E0FF1D27F00707F7E80201EDE72B052E
:1023A00004D52B238DF8283001233BE0EB0739D0EF
:1023B0002023F7E70A2000E010200021CDE90801E2
:1023C00007E01020002145F00405CDE908014FF099
:1023D0000808C5F3025002280FD001CF00214FF0AA
:1023E000000A2B071FD5702A0DD0DDE908C38CF039
:1023F000100C5CEA030C0CD015E0FF1D27F007075A
:10240000F7E80201EBE740228DF828204FF0010A9F
:102410000BE050EA010306D030238DF828308DF808
:10242000292002239A46582A04D024A20DF120091B
:102430000B9209E026A2F9E7DDE90823FEF700F890
:102440000B9B9B5C09F8013D50EA0102F4D1ADEB16
:10245000090020300890680701D44FF0010808995E
:10246000884502DDA8EB010000E000208046002541
:1024700006E00AA85A46405D0F9990476D1C761CED
:102480005545F6DB04E030205A460F999047761CFC
:10249000B8F10001A8F10108F5DC05E019F8010B1D
:1024A0005A460F999047761C0899481E08900029B3
:1024B000F4DC641CC5E60000092801003031323329
:1024C0003435363738396162636465660000000070
:1024D000303132333435363738394142434445465A
:1024E000000000000A68531C0B6010707047000069
:1024F0000349086000BF024909680029FBD1704701
:102500005C0000200448006820B103480068401EB9
:1025100001490860704700005C00002070B5044667
:102520000D46E1B2064801F094F800BF40F2077191
:10253000034801F0B8F80028F8D0204670BD00002C
:1025400000440040F0B503461C6A5D6A00200DE0BF
:102550000126864016403EB187000F26BE40B44398
:10256000860001FA06F63443461CB0B20828EFD3C1
:10257000082011E00126864016405EB1A0F1080651
:10258000B7000F26BE40B543A0F10806B60001FA19
:1025900006F63543461CB0B21028EBD31C625D62D0
:1025A000F0BD816270478161704702461069084042
:1025B00008B1012070470020FCE7F0B504460D4645
:1025C00016462168E268002019E0012787401F4075
:1025D0009FB14FEA400C032707FA0CF7B9434700B5
:1025E00005FA07F739434FEA400C032707FA0CF7BF
:1025F000BA43470006FA07F73A43471CB8B2102817
:10260000E3D32160E260F0BDF0B504460E46012E32
:1026100003D167681F43676002E067689F43676094
:10262000A1684FF6FF77BA4216D1E56B00200EE0A5
:10263000012787401F4047B14FEA400C032707FAA4
:102640000CF73943012787403D43471CB8B2102897
:10265000EED3A160E56314E000200FE0012787407E
:102660001F404FB14FEA400C032707FA0CF7B9435C
:10267000470002FA07F73943471CB8B21028EDD3D8
:10268000A160F0BD1CB500F075FFFFF721F9FFF761
:10269000CFFCFFF76BFAFFF7C3F8FFF79BF8FFF7E4
:1026A000F1F8FFF7ABF8FFF715FB7EE1BF480088B4
:1026B000401CBE490880BE48006843F2F0218842B1
:1026C00002D000F0BDFD15E040F61B1000F0CCFB81
:1026D00018B1B8A0FFF75EFD07E040F61A1000F051
:1026E000C3FB10B1BBA0FFF755FDC2A0FFF752FD21
:1026F00000F076FE00F0F6F98021C648FFF755FF9E
:10270000A0B96420FFF7F4FE8021C248FFF74DFF17
:1027100060B9C1480078401CBF490870084600787D
:10272000032801D101200870FFF7FBF8FEF7D8F865
:102730009E4800880F280FD14FF48061B548FFF7FD
:1027400032FF4FF48071B348FFF72BFF4FF4007155
:10275000B048FFF726FF29E0944800881E280FD1D3
:102760004FF48061AB48FFF71CFF4FF48071A9481C
:10277000FFF719FF4FF40071A648FFF712FF15E0AD
:102780008A4800882D2811D14FF48061A148FFF7B5
:1027900008FF4FF480719F48FFF703FF4FF400716B
:1027A0009C48FFF700FF002080490880FFF7EEFA01
:1027B0008046FDF7DBFD06464FF03332974BFDF7C1
:1027C00055FD0446FDF70CFE95490860002194482C
:1027D0000068FDF72BFE0ED2924991480068FDF784
:1027E0001BFE08D201218120FFF767FA0121FF209B
:1027F000FFF763FA3DE08B4989480068FDF716FE54
:102800000ED2894986480068FDF706FE08D20121EC
:102810008120FFF752FA01218F20FFF74EFA28E0BE
:1028200081497F480068FDF701FE0ED27F497C4850
:102830000068FDF7F1FD08D201218120FFF73DFA84
:1028400001213F20FFF739FA13E078497448006806
:10285000FDF7ECFD0DD2764971480068FDF7DCFD0F
:1028600007D201218120FFF728FA01210F20FFF76D
:1028700024FA704800F0F4FB67480078012802D081
:1028800002285CD134E06CA200210846FFF752F91F
:102890006EA202210020FFF74DF901201021CDE9A1
:1028A00000106C48B0F92C20052302213C20FFF7D2
:1028B000D9F869A204210020FFF73CF968A204219D
:1028C0006E20FFF737F956480068FDF775FD04469E
:1028D0000120102105232246CDE9001004213C20CF
:1028E000FFF7C0F85FA206210020FFF723F95BE0A5
:1028F000614804235022002100903020FFF731F876
:102900004C48807800904B48437802785BA162483D
:10291000FFF750FC604A04210846FFF70BF94548D1
:10292000807900904348437902795CA15A48FFF7C7
:1029300041FC594A06210420FFF7FCF834E03EA28E
:1029400000210846FFF7F6F840A202210020FFF719
:10295000F1F801201021CDE900103E48B0F92C20FB
:10296000052302213C20FFF77DF83BA20421002033
:10297000FFF7E0F83AA204216E20FFF7DBF82848C1
:102980000068FDF719FD04460120102105232246A9
:10299000CDE9001004213C20FFF764F831A20621A4
:1029A0000020FFF7C7F800BF00BF7FE650000020FF
:1029B00050280040706F776572206F6E20726573CB
:1029C0006574206F636375727265642E2E2E2E0AF5
:1029D0000D00000065787465726E616C207265731D
:1029E0006574206F636375727265642E2E2E2E0AD5
:1029F0000D0000006E6F206E65656420746F2063AB
:102A00006F6E666967757265205254432E2E2E2EA6
:102A10000A0D000000040048580000203333F33F43
:102A20005400002000001644008084440080ED44DF
:102A300000409C45C000002053746570436F756E64
:102A40007465722056312E3000000000537465709A
:102A5000733A2000800000204C696768743A0000D7
:102A60006C780000573A6565776F726C642E636FFF
:102A70006D2E636E00000000CC4F00084461746549
:102A80003A323025302E32782D25302E32782D25D1
:102A9000302E327800000000D400002054696D65AB
:102AA0003A25302E32783A25302E32783A25302E9B
:102AB0003278000010B50246012000E050430B1EA2
:102AC000A1F10104E1B2F9D110BD00000348006892
:102AD00040F48070014908607047000000700040B9
:102AE000FFF71CBD0348406A40F08070014948620E
:102AF00070470000001002402DE9F04F92B00546EB
:102B00004FF00009CDF84490CDF84090002300200C
:102B100000240026CDF83C900021CDF83890CDF867
:102B20003490CDF830900022CDF82C90CDF828903C
:102B3000CDF82490CDF820908046002784460FF2EF
:102B4000003999E8004CD9F80C90CDE905BECDF8D4
:102B500010A0CDF81C900FF2EC2ADAE9009ACDE92A
:102B6000029A0FF2E02ADAE9009ACDE9009ADFF83A
:102B7000E092D9F80490C9F38109CDF84490DDF8CA
:102B80004490B9F1000F06D0B9F1010F05D0B9F1A9
:102B9000020F5DD103E0AF4C5CE0AE4C5AE0DFF8D1
:102BA000B092D9F80490C9F38342DFF8A492D9F81F
:102BB0000490C9F3C069CDF82C90DFF89492D9F84D
:102BC0002C904FEAD979CDF82890DDF82C90B9F106
:102BD000000F01D0113200E0921CDDF82890B9F10D
:102BE000010F00D11F32DFF86892D9F80490C9F3C1
:102BF0000049CDF82490DFF85892D9F82C90C9F309
:102C00008079CDF82090DDF82490B9F1000F1AD02A
:102C1000DFF83C92D9F82C9009F00F0909F101086E
:102C2000DDF82090B9F1000F06D1DFF82892B9FB4A
:102C3000F8F909FB02F40AE0DFF81C92B9FBF8F995
:102C400009FB02F403E0DFF8149202FB09F401E04F
:102C5000804C00BF00BFDFF8F891D9F80490C9F3A9
:102C600003170DF1100919F807C024FA0CF6DFF864
:102C7000E091D9F80490C9F302270DF1080919F879
:102C800007C026FA0CF9CDF83C90DFF8C491D9F8CA
:102C90000490C9F3C2271DF807C026FA0CF1072DCE
:102CA0006FD2DFE805F00406080A0C809400204685
:102CB000C1E03046BFE00F98BDE00846BBE0DFF85A
:102CC0009091D9F8309009F48079B9F5807F12D0CD
:102CD000DFF87C91D9F8309009F48039B9F5803F5C
:102CE00004D0DFF87C91CDF838905AE0DFF8749189
:102CF000CDF8389055E0DFF85891D9F80490C9F331
:102D00008139CDF84090DFF84891D9F830904FEAFA
:102D1000D973DDF84090B9F1000F09D0B9F1010F76
:102D200013D0B9F1020F1DD0B9F1030F37D129E04B
:102D300023B94FEA5109CDF8389005E04FF0030967
:102D4000B1FBF9F9CDF838902AE023B94FEA91099F
:102D5000CDF8389005E04FF00509B1FBF9F9CDF851
:102D600038901DE033B94FF00609B1FBF9F9CDF801
:102D7000389005E04FF00709B1FBF9F9CDF838902C
:102D80000EE057E023B94FEAD109CDF8389005E0BD
:102D90004FF00909B1FBF9F9CDF8389000E000BF18
:102DA00000BF0E9847E0DFF8A890D9F8309009F0FE
:102DB0004009B9F1400F04D048F21209CDF834901F
:102DC00003E04FF40049CDF834900D9833E0DFF87C
:102DD0008090D9F8309009F00309B9F1000F01D1C2
:102DE0000C9125E0DFF86890D9F8309009F00309DC
:102DF000B9F1010F01D10C941AE0DFF85490D9F821
:102E0000309009F00309B9F1020F04D14FF40049E1
:102E1000CDF830900CE0DFF83890D9F8309009F018
:102E20000309B9F1030F03D1DFF82890CDF83090F2
:102E30000C9800E000BF00BF12B0BDE8F08F0000AA
:102E4000000000000000000001020304060708095A
:102E50000010024000127A00006CDC0200093D0004
:102E6000809FD500003FAB010146074A02EB91105D
:102E7000006801F01F0301229A40104008B10120B0
:102E800070470020FCE7000000100240064A02EBF9
:102E90009011096800F01F0301229A401143024B70
:102EA00003EB90121160704700100240F0B5064627
:102EB000002400270025B6F5006F22D005DC9EB364
:102EC000102E0ED0182E76D176E0B6F5106F60D0A9
:102ED000B6F5506F39D0A6F54050103800287BD198
:102EE00045E004E01120FFF7BFFF0546641C15B95B
:102EF000B4F5006FF6D11120FFF7B6FF00B101273E
:102F00006BE005E040F60100FFF7AEFF0546641CEC
:102F10001DB96FF07C408442F4D140F60100FFF708
:102F2000A3FF00B1012758E0FFE704E00120FFF70D
:102F30009BFF0546641C15B9B4F5A06FF6D10120BE
:102F4000FFF792FF00B1012747E005E040F601508E
:102F5000FFF78AFF0546641C15B921488442F5D164
:102F600040F60150FFF780FF00B1012735E005E092
:102F700043F21100FFF778FF0546641C15B91848A5
:102F80008442F5D143F21100FFF76EFF00B1012733
:102F900023E005E040F60110FFF766FF0546641CDC
:102FA00015B90F488442F5D140F60110FFF75CFFD8
:102FB00000B1012711E00FE004E01920FFF754FFF2
:102FC0000546641C15B906488442F6D11920FFF75E
:102FD0004BFF00B1012700E000BF00BF3846F0BD45
:102FE000FFFF0F00064A02EB9011096800F01F0373
:102FF00001229A401143024B03EB9012116070477B
:1030000000100240064A02EB9011096800F01F030D
:1030100001229A409143024B03EB901211607047DA
:1030200000100240064A02EB9011096800F01F03ED
:1030300001229A401143024B03EB9012116070473A
:10304000001002400549096A21F44071034A1162E7
:103050001146096A014311627047000000100240E6
:1030600030B50022002100230024154D2A682D1DB3
:103070002968134D10352B68114D08352C680D0C3F
:103080000570C1F30425457001F03F058570C1F35B
:103090004235C570C2F305450571C2F30625457179
:1030A00002F07F058571C3F306450581C3F30E0564
:1030B000458103F48005C56004F04005056130BD1D
:1030C00000280040F0B5044600250026002720789F
:1030D0004FF47F0101EA0040E1784FF4604202EAD8
:1030E0004131084361784FF4F85202EA0121084364
:1030F000A17801F03F0140EA010721794FF47C12E9
:1031000002EA0141E068084361794FF4FE4202EAB5
:1031100001210843A17901F07F0140EA0106CA209C
:10312000184908605320086000F02EF805461DB3CA
:1031300020894FF4FE0101EA00406189C1F30E01CC
:1031400008431049143908600E4824380660001DF1
:103150000760001D006820F040000A491C39086023
:10316000084600682169084306491C39086000F0D8
:103170002DF800F035F80546FF2002490860284682
:10318000F0BD00002428004010B54FF4804200211B
:1031900000200D4B1B6803F0400393B90A4B1B68DA
:1031A00043F08003084C236000BF074B1B6803F00B
:1031B0004001531E1A1E01D00029F6D011B1012082
:1031C00000E0012010BD00000C280040034800680A
:1031D00020F0800001490860704700000C28004082
:1031E00008B54FF40042009200210020134A1268F3
:1031F00002F0200202BBCA22104B1C331A60532279
:103200001A600E4A121D126822F020020B4B1B1D81
:103210001A6000BF094A121D126802F02001009ACC
:10322000521E00920AB10029F4D001B10120FF2200
:10323000024B1C331A6000E0012008BD0828004042
:1032400070B5FF26FF24FF252B4800682B49088115
:103250002B4800684881182008700520C870092094
:1032600048702120887000200861C86025A0FEF702
:1032700091FF2DA0FEF78EFF05E0172000F022FA47
:1032800006461E480671FF2EF7D031462CA0FEF7E9
:1032900081FF2EA0FEF77EFF05E03B2000F012FA32
:1032A000044616484471FF2CF7D0214624A0FEF7AF
:1032B00071FF2DA0FEF76EFF05E03B2000F002FA43
:1032C00005460E488571FF2DF7D029461CA0FEF754
:1032D00061FF0A48FFF7F6FE18B92AA0FEF75AFF69
:1032E00008E033A0FEF756FF00F07AF843F2F02032
:1032F0003A49086070BD000074000020640100209D
:10330000780000203D3D3D3D3D3D3D436F6E66698B
:1033100067757265205254432054696D653D3D3D8B
:103320003D3D3D3D3D0A0D002020706C656173659B
:1033300020696E70757420686F75723A0A0D00000E
:10334000202025302E32780A0D0000002020706CDD
:103350006561736520696E707574206D696E757432
:10336000653A0A0D000000002020706C65617365ED
:1033700020696E707574207365636F6E643A0A0D10
:10338000000000000A0D2A2A205254432074696D5F
:103390006520636F6E66696775726174696F6E2010
:1033A0006661696C656421202A2A0A0D000000000C
:1033B0000A0D2A2A205254432074696D6520636FD8
:1033C0006E66696775726174696F6E207375636389
:1033D00065737321202A2A0A0D000000502800403E
:1033E000F0B587B000BF00BF00BF00BF2948FFF79E
:1033F00037FE00F071F8044604EB4400C0EBC41043
:103400004FF47A7101EBC0004FF4C871B0FBF1F0DA
:10341000C0F57A706421B0FBF1F0C5B204EB440052
:10342000C0EBC4104FF47A7101EBC0004FF4C871C7
:10343000B0FBF1F0C0F57A706421B0FBF1F201FB52
:1034400012000A21B0FBF1F604EB4400C0EBC410FB
:103450004FF47A7101EBC0004FF4C871B0FBF1F08A
:10346000C0F57A700A21B0FBF1F201FB120709489E
:10347000807902A9E1C10748407906490979CDE977
:103480000010044883784278017803A0FEF782FE9A
:1034900007B0F0BD6401002043757272656E742040
:1034A00074696D653A20323025302E32782D253002
:1034B0002E32782D25302E32782025302E32783A53
:1034C00025302E32783A25302E3278202E2564256C
:1034D000642564200A0D00000020034908680249A1
:1034E0002439096870470000282800401C484068BB
:1034F0001B4948600846406840F400504860084650
:10350000406840F4806048600846406815490840BB
:103510001349486008464068134908431049486009
:103520000846006840F08070086000BF0C480068E2
:1035300000F000700028F9D00948406820F003002E
:10354000074948600846406840F00200486000BFF4
:103550000348406800F008000028F9D070470000D8
:1035600000100240FFFFC2F70000280810B5FFF767
:10357000BDFF10BD10B5124800684FF47A71B0FB62
:10358000F1F4601EB0F1807F01D301200FE0601ED6
:103590004FF0E02148610F214FF0FF30FEF71EFE93
:1035A00000204FF0E021886107200861002008B169
:1035B00000BFFEE70021481EFEF710FE10BD000010
:1035C000000000202DE9F04704460D460027B846CC
:1035D000B94600261B48204438B1B0F5744F09D1D4
:1035E0000620FFF789FA074605E00220FFF784FA74
:1035F000074600E000BF00BF206800F4004080B133
:10360000780000EB5500B0FBF5F64FF6F07006EAD7
:10361000000806F00709E16848EA09000143E16093
:103620000EE007EB5500B0FBF5F64FF6F07006EA3A
:10363000000806F00F09E16848EA09000143E1606B
:10364000BDE8F08700BCFFBF0146486AC0F3080030
:103650007047C1F3080282627047000010B504464B
:103660000D48204458B1B0F5744F11D140F20E30DE
:10367000FFF7D8FC40F20E30FFF7C4FC09E040F23F
:103680001140FFF7CFFC40F21140FFF7BBFC00E018
:1036900000BF00BF10BD000000BCFFBF016841F0CB
:1036A00001010160704710B5024602EB91100068FD
:1036B00001F01F040123A340184008B1012010BDF0
:1036C0000020FCE77CB50546002400200090019016
:1036D0001CE000BF40F205711948FFF7E4FF002825
:1036E000F8D01748FFF7B0FF2146641C4DF82100C1
:1036F000601E5DF82000302804D3601E5DF82000B5
:10370000392803D90FA0FEF745FD641E022CE0D333
:10371000019830380099303901EB810100EB410408
:10372000AC4205D9294614A0FEF734FDFF207CBD2C
:10373000019830380099303900EB0114E0B2F6E717
:10374000004400400A0D20706C6561736520696E4D
:1037500070757420612076616C6964206E756D628D
:103760006572206265747765656E203020616E64D5
:103770002039200A0D0000000A0D20706C6561736D
:103780006520696E70757420612076616C696420B3
:103790006E756D626572206265747765656E203046
:1037A00020616E64202564200A0D0000026822F06A
:1037B0000402026002680A4302607047026822F055
:1037C0000802026002680A430260704700030509AC
:1037D00011FF118905C300E000F000F800000000AF
:1037E0000000004428FF11AA44000000000000006F
:1037F00000000000000000000000000000000000C9
:1038000000000000000000000000000000000000B8
:1038100000000000000000000000000000000000A8
:1038200000000000000083013844829292740183FA
:10383000000000000000007C44FF017D7D7D017DD3
:103840007D7D7D017D7D7D7D7D01FF00000000008F
:103850000001000100010001000100010000000062
:103860000000000000010100000000000000000056
:103870000000000000000000000000000000000048
:103880000000000000000000000000000000000038
:103890000000000000000000000000000000000028
:1038A0000000000000000101000000000000010114
:1038B0000000000000000000000101010101010101
:1038C00001010101010101010101010000000000ED
:1038D00000000000000000000000000000000000E8
:1038E00000000000000000003F3F0303F31311112C
:1038F0001111111101F1116181010101816111F1B8
:10390000010101014141F10101010101C121111137
:10391000111121C1010101014141F1010101010127
:1039200001010101011111111111D33303033F3FB3
:103930000000000000000000000000000000000087
:103940000000000000000000000000000000000077
:103950000000000000000000000000000000000067
:103960000000000000000000E0E000007F01010115
:1039700001010100007F0000010618060100007F20
:103980000000000040407F40400000001F204040F9
:103990004040201F0000000040407F4040000000E9
:1039A00000600000000040300C0300000000E0E078
:1039B0000000000000000000000000000000000007
:1039C00000000000000000000000000000000000F7
:1039D00000000000000000000000000000000000E7
:1039E00000000000000000000707060606060404A9
:1039F0000484444444840404844444448404040407
:103A000084C4040404048444444484040404040476
:103A100084444444840404040404844444448404E6
:103A20000484444444840404040406060606070788
:103A30000000000000000000000000000000000086
:103A40000000000000000000000000000000000076
:103A50000000000000000000000000000000000066
:103A60000000000000000000000000000000000056
:103A700000101814121100000F1010100F00000099
:103A8000101F10000000081012120D000018000096
:103A90000D1212120D00001800001018141211005F
:103AA00000101814121100000000000000000000B7
:103AB0000000000000000000000000000000000006
:103AC00000000000000000000000000000000000F6
:103AD00000000000000000000000000000000000E6
:103AE00000000000000000000000000000000000D6
:103AF00000000000000000000000000000000000C6
:103B000000000000000000008080808080808080B5
:103B100000000000000000000000000000000000A5
:103B20000000000000000000000000000000000095
:103B30000000000000000000000000000000000085
:103B4000000000000000000000000000007F030CE7
:103B5000300C037F00003854545800007C04047873
:103B600000003C40407C000000000000000000001D
:103B70000000000000000000000000000000000045
:103B80000000000000000000FFAAAAAA280800FF09
:103B90000000000000000000000000000000000025
:103BA0000000000000000000000000000000000015
:103BB00000000000007F030C300C037F000026494A
:103BC00049493200007F020408107F000003050904
:103BD00011FF118905C300E000F000F800000000AB
:103BE0000000004428FF11AA44000000000000006B
:103BF00000000000000000000000000000000000C5
:103C000000000000000000000000000000000000B4
:103C100000000000000000000000000000000000A4
:103C200000000000000083013844829292740183F6
:103C3000000000000000007C44FF017D7D7D7D01CF
:103C40007D7D7D7D017D7D7D7D01FF00000000008B
:103C5000000100010001000100010001000000005E
:103C60000000000000010100000000000000000052
:103C70000000000000000000000000000000000044
:103C80000000000000000000000000000000000034
:103C90000000000000000000000000000000000024
:103CA0000000000000000101000000000000010110
:103CB00000000000000000000001010101010101FD
:103CC00001010101010101010101010000000000E9
:103CD00000000000000000000000000000000000E4
:103CE0000000000000000000000000F808080808BC
:103CF00008080800F8186080000000806018F800CC
:103D000000002020F8000000000000E01008080873
:103D10000810E00000002020F80000000000000073
:103D20000000000000080808080888681800000063
:103D30000000000000000000000000000000000083
:103D40000000000000000000000000000000000073
:103D50000000000000000000000000000000000063
:103D600000000000000000000000007F01010101D0
:103D7000010100007F0000010618060100007F001D
:103D8000000040407F4040000000001F20404040B5
:103D900040201F00000040407F4040000000000025
:103DA0006000000000000060180601000000000034
:103DB0000000000000000000000000000000000003
:103DC00000000000000000000000000000000000F3
:103DD00000000000000000000000000000000000E3
:103DE00000000000000000000000000000000000D3
:103DF0000040202020C00000E0202020E000000043
:103E000040E00000000060202020E00000000000F2
:103E1000E0202020E0000000000040202020C00022
:103E20000040202020C00000000000000000000032
:103E30000000000000000000000000000000000082
:103E40000000000000000000000000000000000072
:103E50000000000000000000000000000000000062
:103E60000000000000000000000000000000000052
:103E7000000C0A0A090C00000F0808080F000000D7
:103E8000080F080000000C0809090E00000C0000D3
:103E90000F0909090F00000C00000C0A0A090C00A8
:103EA000000C0A0A090C00000000000000000000DD
:103EB0000000000000000000000000000000000002
:103EC00000000000000000000000000000000000F2
:103ED00000000000000000000000000000000000E2
:103EE00000000000000000000000000000000000D2
:103EF00000000000000000000000000000000000C2
:103F000000000000000000008080808080808080B1
:103F100000000000000000000000000000000000A1
:103F20000000000000000000000000000000000091
:103F30000000000000000000000000000000000081
:103F4000000000000000000000000000007F030CE3
:103F5000300C037F00003854545800007C0404786F
:103F600000003C40407C0000000000000000000019
:103F70000000000000000000000000000000000041
:103F80000000000000000000FFAAAAAA280800FF05
:103F90000000000000000000000000000000000021
:103FA0000000000000000000000000000000000011
:103FB00000000000007F030C300C037F0000264946
:103FC00049493200007F020408107F000000000011
:103FD00000000000000000000000000000000000E1
:103FE00000000000000000000000000000000000D1
:103FF00000000000000000000000000000000000C1
:104000000000000000000018000000000000000098
:104010000000000000000018000000000000000088
:10402000000000000000001800000000000001FF78
:1040300083C000000002001800000000000007001C
:10404000FC400000000300180000000000000C0706
:10405000102000000001C000018000000000087C6A
:10406000C03000000000C00003800000000009C054
:10407000601000000000007807000000007C0700CE
:1040800020100000000000FE0E00000000C79C0091
:1040900030100000000003FF0000000001807000ED
:1040A00010100000000007FF8000000001800000E9
:1040B0003010000000000FFFC00000000080000072
:1040C000601C000000000FFFE00000000080000105
:1040D000C004000000001FFFE20000000080000795
:1040E000FFF8000000001FFFE1F0000000C0003EEC
:1040F00000000000001FC7FFE1F00000007FFFE0AC
:104100000C000000000FC7FFE000000000000000EE
:104110003E000000000003FFE0000000000000007F
:1041200061000000000001FFE0000000000000004E
:10413000C0800000000000FF00000000000000013F
:104140008060000000000000000000000000000788
:10415000003800003E000000020000000000000CDB
:10416000000C0000230004000700000000000018FD
:104170000004000041000C06078000000000003031
:1041800000020000C0801C0701C0000000000060A9
:10419000000300018060780700600000000000CF8D
:1041A000800100030030000700000000000003F859
:1041B0007FFF800600180007000000000000078055
:1041C0000000400C000C00060000000000001FFF73
:1041D000FFFF201800060000000000000000700033
:1041E0000000303000010000000000000000C000AE
:1041F00000001843FE01C000000000000000FFFFA7
:10420000FFFFFE4003FF600000000000000300000D
:104210000000024000003000000000000006000026
:10422000000001000000180000000000000FFFE087
:10423000000000C1FFFFC60000000000001A001FC0
:10424000FFFFC06000003F000000000000300000E1
:10425000000000303FFFE0C00000000000C0000090
:104260000000001800000020000000000180000095
:104270000000000C000FFE1800000000033FFFFFCD
:10428000FFFF80067FF80006000000000600000027
:104290000000000300000003000000000C0000000C
:1042A000000001FF80000000C000000018000000B6
:1042B0000000070080000FFF300000001000000029
:1042C000003FFC00C1FFF0000800000010000000EB
:1042D00000000000600000000700000010C00000A7
:1042E000000000001000000001000000007FFE0040
:1042F000000000000C0000000000000000000000B2
:1043000000000000041FFFFFFFFFFFE000000000AF
:10431000000000000200000000000000000000009B
:10432000000000000200000000000000000000008B
:10433000000000000000000000000000000000007D
:10434000000000000000000000000000000000006D
:10435000000000000000000000000000000000005D
:10436000000000000000000000000000000000004D
:10437000000000000000000000000000000000003D
:10438000000000000000000000000000000000002D
:10439000000000000000000000000000000000001D
:1043A000000000000000000000000000000000000D
:1043B00000000000000000000000000000000000FD
:1043C00000000000000000000000000000000000ED
:1043D000000000000000C0C0C0C0C0C0C00000009D
:1043E000000000000000008080C0C0C0C0C0C0C08D
:1043F000C0C0C0C0C080000080C0C0C0C0C0C0C0BD
:10440000000000000000008080C0C0C0C0C0C0C06C
:10441000C00000000000000080808080C0C0C0801C
:10442000808000000000000000C0C0C0C0C0C0C04C
:10443000C0000000000000000000C0C0C0C0C0C03C
:10444000C0C00000000000000000000000000000EC
:10445000000000000000FFFFFFFFFFFFFF00000063
:10446000C0E0F8FCFEFFFFFFFFFF7F7F7F7F7F7FC5
:104470007F7F7F7F7F7F0000FFFFFFFFFFFFFFFF4A
:1044800080C0E0F0F8FCFEFFFFFF7F3F1F0F070337
:104490000080E0F8FC7C3E3F1F1F1F1F1F1F1F1FD7
:1044A0003F3F7FFFFEFCF8F0E0031F7FFFFFFFFFB1
:1044B000FFFEF8E00000E0F0FCFFFFFFFFFFFF3F22
:1044C00007010000000000000000000000000000E4
:1044D000000000000000FFFFFFFFFFFFFF0000FEE5
:1044E000FFFFFFFFFFFFFF070100000000000000CB
:1044F0000000000000000000FFFFFFFFFFFFFFFFC4
:10450000FFFFFFFFFFFF0F07030100000000000097
:10451000C0C1E1E0F0F0F8F8FCFCFEFEFEFEFEFC9F
:10452000F8F0F0F8FD7F7F3F3F1F0000030F3FFFD3
:10453000FFFFFFFFFEFFFFFFFFFFFF1F0F03000056
:10454000000000000000000000000000000000006B
:10455000000000000000FFFFFFFFFFFFFF0000075B
:104560001F7FFFFFFFFFFFFEF8F0F0E0E0E0E0E07C
:10457000E0E0E0E0E0E00000FFFFFFFFFFFFFFFF03
:104580003FFFFFFFFFFFFEFCF8F8F8F0F0F0F0E06F
:10459000E3DF7FFFFFFDF9F0E0E0C1C383838783A2
:1045A00083C3C1E0E0F0F0F83CE0E0E0E0E0F0F3ED
:1045B000FFFFFFFFFFFFFF7F1F070000000000005D
:1045C00000000000000000000000000000000000EB
:1045D0000000000000003F3F3F3F3F3F3F00000022
:1045E00000000103070F0F1F1F3F3F3F3F3F3F3FAB
:1045F0003F3F3F3F3F3F00003F3F3F3F3F3F3F3F49
:10460000000001030307070F0F1F1F1F1F3F3F3F3E
:104610003F1F00010303070F0F1F1F1F1F1F1F1F37
:104620001F1F0F0F07030100003F3F3F3F3F3F1F8A
:104630001F1F0F0703010000000000000000000022
:10464000000000000000000000000000000000006A
:10465000000000000000E0E0E0E0E0E0E0E0E0E09A
:10466000E0E0E0000000000010F0F0E0E0F0F0F02A
:10467000F0F0F0F0F0F00000000000E0E0E0E0E03A
:10468000E0F0F0E0E0E0E0E0E00000000000F0F04A
:10469000F0F0F0F0F0F0F0F0F0F0F0F000000000DA
:1046A00000E0E0E0E0E0E0E0C0E0E0E0E0C0C0002A
:1046B000000000E0F0F0F0F0F0F0F0F0F0F0F0F0DA
:1046C000F0000000000000000000000000000000FA
:1046D0000000000000003DFDFDFD3D3D3D3D3D3D38
:1046E000BDFDFD000000000000BFFFFFFB030FFF4A
:1046F000FEFCFFBF07010000000000FFFFFFFDDD23
:10470000FFFFFFFFDD9CFFFFFF0000000070F0F0E7
:10471000F0FEFEFEFEFEFFFFF7F3F1F000000000EA
:1047200003FFFFFFFFFFFFFF03FFFFFFFF0301008A
:10473000000000FFFFFFFF878FDFFEF8FEFFCF873F
:1047400083000000000000000000000000000000E6
:104750000000000000000F0F0F0E0E0E0E0E0E0ECA
:104760000F0F0F00000000000C0F0F0F0F0C0E0FAB
:104770000F0F0F0F0C0C00000000000303030301D8
:10478000070F0F0F0F0F0F0F0F00000000000E0E8E
:104790000E0E0E0E0E0F0F0F0200000000000000A4
:1047A0000C0F0F0F0F0F0F0F0E0F0F0F0F0E0E002E
:1047B000000000070F0F0F0F0F0F0F0E0F0F0F0F3F
:1047C0000F000000000000000000000000000000DA
:1047D0000000000080404040404040404040404099
:1047E00040404040404080808000000000000000C9
:1047F00000008080004040404040404040404040F9
:1048000040808000000000000000800080808080E8
:104810008000000000000000000000008040408098
:104820008080400000000000804040404040404008
:104830004040404040404040404040404040408038
:1048400080000000000000000000000000000000E8
:104850000000FF0000000000000000C02020202019
:10486000202040C000000000000104B800C018046F
:104870000201000000000040202020202040800095
:1048800000000001020418E000FF0000000000002A
:104890000000FF0000000000000000FF000000001A
:1048A00000000000FF0000FF00000000000000C04A
:1048B00020E00000000000000000E000C000000058
:1048C0000001020418E000000000000000000000E9
:1048D0000000FF0000000000000000FF201010108A
:1048E00010100807000000000000807000FF0000AA
:1048F000000000000000FF00000000000000FF00BA
:1049000000000000000000FF00FF000000000000A9
:10491000000007000000000000000003000000008D
:1049200000000000FF0000FF00000000000000FF8A
:1049300000FF0000000000000000FF00FF0000007A
:104940000000000000FF0000000000000000000068
:104950000000FF0000000000000000FF061860805B
:10496000000000000000040A12618000007F0000C7
:104970000000000000003F408080808080403F00B9
:10498000000000000000807F00FF00000000000029
:104990000000FE0202020202020202FE000000000B
:1049A00000000000FF0000FF00000000000000FF0A
:1049B00000FF0000000000000000FF00FF000000FA
:1049C0000000000000FF00000000000000000000E8
:1049D00000000F10202020202020201700000000C1
:1049E0000106081020202020202021220408020493
:1049F000081010202020004040404040404040200F
:104A00002020001008040300001F20202020202068
:104A100020201F00000000000000001F2020202098
:104A2000202020201F000017202020202020201FD1
:104A3000000F00202020202020201F001F202020E9
:104A400020202020000F00000000000000000000D7
:104A50000000E01008080808088888F020100808FE
:104A600008080808F010080808307008080800E076
:104A700010080800E0201008088888889060100856
:104A8000088808081010E000080800300008080036
:104A9000F00808088808080830F0080808F0F0084E
:104AA0000808F010100808888888508088080808CE
:104AB000088888201008088408081020F0080808D2
:104AC0000808080810E000000000000000000000D6
:104AD00000001B2444404040404040211020404002
:104AE000404040403F224040204080604040001F06
:104AF000204040001F002040434444440F10204009
:104B00004242454040303F40404018204040400035
:104B10003F00404047434020101F20404047034093
:104B200040201F3000404344444438001827404090
:104B3000201F0F10204043464140201039404000C4
:104B400038204040443B000000000000000000000E
:104B50000000000000000000000000000000000055
:104B60000000000000000000000000000000000045
:104B70000000000000000000000000000000000035
:104B80000000000000000000000000000000000025
:104B90000000000000000000000000000000000015
:104BA0000000000000000000000000000000000005
:104BB00000000000000000000000000000000000F5
:104BC00000000000000000000000000000000000E5
:104BD00000000000000000000000000000000000D5
:104BE00000000000000000000000000000000000C5
:104BF00000000000000000000000000000000000B5
:104C000000000000000000000000000000000000A4
:104C10000000000000000000000000000000000094
:104C20000000000000000000000000000000000084
:104C30000000000000000000000000000000000074
:104C40000000000000000000000000000000000064
:104C50000000000000000000C0E0E0E0E0E0E0E074
:104C6000E0E0E0E0E0E0E0E0E0E0E0E0E0E0C00044
:104C7000000000000000000080C0C0000000000034
:104C80000000C0C0C0C0C0C0C08080000080C0C0E4
:104C9000C0C0C0C0C0C0C0800000808080C0C080D4
:104CA0008080808080000000808000C0C00080C0C4
:104CB000C0000000C0C0C0C0C0C0C0C0C0800000F4
:104CC00000000000000000000000000000000000E4
:104CD0000000000000000000FFFFFFFFFFFFFF3F9C
:104CE0000F07030101018080C1FFFFFFFFFFFFFFEE
:104CF00000000000FCFEFEC6FFFFFFC6C6FEFE0071
:104D000080C0C0C0CEFEFCFCDFC7C3C000000000F6
:104D100000FFFFFF000000000000CDFFFFFFC9BF44
:104D2000BFB1B1BFBF000038FFFF18FFFF38FFFF62
:104D3000FF3800007F3FE6E6FFFFE6FF3F3F000051
:104D40000000000000000000000000000000000063
:104D50000000000000000000FFFFFFFFFF07000051
:104D600000E0F8FEFF7F3F3F7FFFFFFFFFFFFFFFF9
:104D7000000000003F3F3F30FFFFFF30393F9FC042
:104D8000000040C080C1FFFF1F00000000000000C5
:104D900000FFFFFF000000000000FFFFFF7FFF1982
:104DA00019FFFF1919000000FFFF003F3F383B3F8C
:104DB0001F0000080CFFFF7D0000FFFFFF0E080032
:104DC00000000000000000000000000000000000E3
:104DD0000000000000000000FFFFFFFFFF80000058
:104DE000000F7FFFFFF8F0F0F8FFFFFFFFFFFFFF6E
:104DF0000000103818181818191B1B1B1B1B1B1838
:104E0000181818181919191818181818181B1B1B16
:104E10001B1B1B1B9B9B1B1B1918199B9B18191BEE
:104E20001B1B1B1B1B1818181919191919191919EB
:104E300019191818181919181818191919181810F3
:104E40000000000000000000000000000000000062
:104E50000000000000000000FFFFFFFFFFFFFCF06C
:104E6000E0800001030307070FFFFFFFFFFFFFFFC5
:104E7000000000C0F0F8DCFCF800E0F8D8DCF8F046
:104E800000F8F8E0F8F8C0F838E0F8381CFCF0C09A
:104E9000F83818F0FFC7F0381C3CFC7F010080E0B8
:104EA00070707000C0E070F0C0C0F060F0E070F0B2
:104EB000C0000080E070707000E0E070E000000072
:104EC00000000000000000000000000000000000E2
:104ED00000000000000000000F1F3F3F3F3F3F3F2A
:104EE0003F3F3F3F3E3E3E3E3F3F3F3F3F3F3F0F06
:104EF000000000070F0C0C0E00000F0F0D0E060037
:104F0000000F0F030F1F0700000F1E1C0E07011FCD
:104F10000F000E1F00070F1C0E0F0F001C00070FC5
:104F20001C0E04000F1C0C07011F01081F010C0FB1
:104F3000000C00071F1C0E000E0F001F0F000000CA
:104F40000000000000000000000000000000000061
:104F50000000000000000000000000000000000051
:104F60000000000000000000000000000000000041
:104F70000000000000000000000000000000000031
:104F80000000000000000000000000000000000021
:104F90000000000000000000000000000000000011
:104FA0000000000000000000000000000000000001
:104FB00000000000000000000000000000000000F1
:104FC000000000000000000000000000F0FCFE7E79
:104FD0009FCFEFF7F3FBFB7C7C7C7C3C3C7C7C7CB8
:104FE0007CFBFBF3F7EFCF9F7EFEFCF00707F8FE9C
:104FF000FFFF7F07030100000000FCFCFCFCC0C0B9
:10500000C0C00103077FFFFFFEF8070700001F7FF6
:10501000FFFFFEE0C0800000000003030303030362
:10502000030380C0E0FEFFFF7F1F000000000000C0
:105030000103FFFFFFFF1F3E3E3E3E3C3C3E3E3E27
:105040003E1FFFFFFFFF0301000000000000000003
:1050500000000000002F00000000070007000014FF
:105060007F147F1400242A7F2A120062640813230D
:1050700000364955225000000503000000001C22A4
:105080004100000041221C000014083E08140008E2
:10509000083E0808000000A0600000080808080892
:1050A000000060600000002010080402003E51492A
:1050B000453E0000427F40000042615149460021C8
:1050C00041454B31001814127F10002745454539E2
:1050D000003C4A494930000171090503003649493D
:1050E000493600064949291E0000363600000000F6
:1050F0005636000000081422410000141414141441
:1051000000004122140800020151090600324959E9
:10511000513E007C1211127C007F49494936003E05
:1051200041414122007F4141221C007F49494941C0
:10513000007F09090901003E4149497A007F0808BA
:10514000087F0000417F4100002040413F01007F77
:1051500008142241007F40404040007F020C027F43
:10516000007F0408107F003E4141413E007F090955
:105170000906003E4151215E007F0919294600467B
:10518000494949310001017F0101003F4040403F52
:10519000001F2040201F003F4038403F006314089C
:1051A0001463000708700807006151494543000077
:1051B0007F41410000552A552A55000041417F009A
:1051C000000402010204004040404040000001028F
:1051D0000400002054545478007F48444438003878
:1051E0004444442000384444487F00385454541800
:1051F00000087E0901020018A4A4A47C007F080412
:1052000004780000447D4000004080847D00007FE1
:10521000102844000000417F4000007C04180478FE
:10522000007C0804047800384444443800FC2424FA
:1052300024180018242418FC007C080404080048E2
:105240005454542000043F444020003C4040207C03
:10525000001C2040201C003C4030403C00442810F2
:105260002844001CA0A0A07C004464544C441414A6
:1052700014141414000000000000000000000000DE
:1052800000000000000000F80000000000000033F3
:105290003000000000100C06100C0600000000009A
:1052A0000000000040C07840C0784000043F040483
:1052B0003F040400007088FC08300000001820FF44
:1052C000211E0000F008F000E018000000211C037F
:1052D0001E211E0000F00888700000001E212324FB
:1052E0001927211010160E00000000000000000019
:1052F00000000000000000E01804020000000007A9
:105300001820400000020418E000000000402018AF
:1053100007000000404080F0804040000202010F82
:1053200001020200000000F0000000000101011F66
:1053300001010100000000000000000080B07000CA
:10534000000000000000000000000000000101015A
:1053500001010101000000000000000000303000E9
:1053600000000000000000008060180400601806C3
:105370000100000000E010080810E000000F1020FD
:1053800020100F00001010F8000000000020203F47
:1053900020200000007008080888700000302824D1
:1053A0002221300000300888884830000018202072
:1053B00020110E000000C02010F800000007042497
:1053C000243F240000F808888808080000192120DC
:1053D00020110E0000E0108888180000000F112036
:1053E00020110E0000380808C83808000000003FEF
:1053F000000000000070880808887000001C22214E
:1054000021221C0000E010080810E00000003122FA
:1054100022110F00000000C0C0000000000000309A
:1054200030000000000000800000000000008060EC
:10543000000000000000804020100800000102046D
:105440000810200040404040404040000404040454
:105450000404040000081020408000000020100810
:1054600004020100007048080808F0000000003045
:1054700036010000C030C828E810E00007182724D3
:1054800023140B000000C038E0000000203C230281
:105490000227382008F8888888700000203F2020E4
:1054A00020110E00C0300808080838000718202016
:1054B0002010080008F808080810E000203F20200D
:1054C00020100F0008F88888E8081000203F2020EE
:1054D0002320180008F88888E8081000203F2000E2
:1054E00003000000C030080808380000071820201A
:1054F000221E020008F808000008F808203F2101D9
:1055000001213F20000808F8080800000020203F83
:105510002020000000000808F8080800C0808080F3
:105520007F00000008F888C028180800203F2001EC
:105530002638200008F8080000000000203F202046
:105540002020300008F8F800F8F80800203F003F5D
:10555000003F200008F830C00008F808203F200075
:1055600007183F00E01008080810E0000F10202086
:1055700020100F0008F808080808F000203F21015B
:1055800001010000E01008080810E0000F182424B2
:1055900038504F0008F8888888887000203F200025
:1055A000030C3020007088080808380000382021DB
:1055B00021221C00180808F8080818000000203FE5
:1055C0002000000008F808000008F808001F20204C
:1055D00020201F000878880000C83808000007381D
:1055E0000E010000F80800F80008F800033C07006E
:1055F000073C0300081868808068180820302C03D6
:10560000032C30200838C800C83808000000203FAC
:105610002000000010080808C8380800203826219B
:1056200020201800000000FE020202000000007F9F
:1056300040404000000C30C00000000000000001AD
:105640000638C00000020202FE0000000040404098
:105650007F000000000004020202040000000000BD
:10566000000000000000000000000000808080803A
:105670008080808000020204000000000000000022
:1056800000000000000080808080000000192422BB
:1056900022223F2008F8008080000000003F1120F7
:1056A00020110E000000008080800000000E1120FC
:1056B00020201100000000808088F800000E1120DA
:1056C00020103F200000808080800000001F2222E8
:1056D00022221300008080F0888888180020203F54
:1056E000202000000000808080808000006B949467
:1056F0009493600008F8008080800000203F210023
:1057000000203F2000809898000000000020203FEB
:1057100020200000000000809898000000C08080D9
:10572000807F000008F8000080808000203F240275
:105730002D302000000808F8000000000020203F65
:10574000202000008080808080808000203F20001A
:105750003F20003F8080008080800000203F2100AB
:1057600000203F200000808080800000001F20205B
:1057700020201F00808000808000000080FFA1208A
:1057800020110E000000008080808000000E11209B
:1057900020A0FF80808080008080800020203F212A
:1057A00020000100000080808080800000332424DD
:1057B00024241900008080E0808000000000001F89
:1057C000202000008080000000808000001F20203A
:1057D00020103F20808080000080808000010E30FB
:1057E0000806010080800080008080800F300C035C
:1057F0000C300F0000808000808080000020312E5F
:105800000E312000808080000080808080818E703A
:105810001806010000808080808080000021302CEC
:105820002221300000000000807C02020000000005
:10583000003F404000000000FF00000000000000AA
:10584000FF0000000002027C800000000040403F9A
:105850000000000000060101020204040000000034
:1058600000000000048484FC848400040484E41C9C
:10587000840404002060201F101004020100FF00B7
:10588000000106001010FF101020A4ACB5A6B4ACA7
:10589000A420200010301F0888804F3A0A0A7A8A14
:1058A0008F80E000080889EA984000F8888888FF1F
:1058B00088A81800020100FF0081601F80432C109F
:1058C0002C4380001060028C00FE02F202FE00F801
:1058D00000FF000004047E018047300F10270047BE
:1058E000807F0000403C10FF101020108F7808F8D7
:1058F00008F80000020602FF010104422118468157
:10590000403F000000C030808080F0808080000038
:1059100001FF10082422FF2224081000204000006C
:10592000F0505050F0000000422490FC85FD85FDB1
:1059300085FC8000102810C020101010207000007E
:105940000000000708101010100804000040424436
:105950005840407F40405048C6000000004044444A
:105960004444444444444444FF0000000808E829F7
:105970002E28E80808C80C0BE80808000000FF09FA
:1059800049897F00000F40807F00000000FC848474
:1059900084FC001010101010FF101000003F1010B9
:1059A000103F0000010640807F00000000F8010663
:1059B00000F0121212F2020202FE000000FF0000CC
:1059C000001F1111111F0040807F00000000101106
:1059D000161010F0101014131000000081814141C6
:1059E00021110D030D112141418181001010D0FFC3
:1059F000901000FE020202FE00000000040300FFFF
:105A00000083601F0000003F40407800100C042419
:105A1000242425262424242404140C0000818141FC
:105A2000310F0101017F818181F100000000F888C0
:105A30008888880808FF08090AC8080080601F00D5
:105A400010201F80402116182641F8002222FE2235
:105A5000804222FA0622C200040403020000000F62
:105A60000000000010FF1008EAAEABAAAEEA080082
:105A7000040702080B0602020E0B0C008445F6AC6C
:105A800000FC24E43FE40C0000000F0804030805B8
:105A9000020508002244FE02FA02FE00FC00FF009C
:105AA000040209040304090001080F009C88FF4850
:105AB00008C73C847C04FC0000000F0009040201BC
:105AC0000808070010200000F8A8A8A8F8000000A7
:105AD0002112487E427E427E427E400000F05050BD
