:020000040800F2
:1000000068080020ED01000801030008AD020008A7
:10001000FD020008A7020008D50300080000000048
:1000200000000000000000000000000005030008C0
:10003000AB020008000000000303000807030008EB
:10004000070200080702000807020008070200086C
:10005000070200080702000807020008070200085C
:10006000070200080702000807020008070200084C
:10007000070200080702000807020008070200083C
:10008000070200080702000800000000070200083D
:10009000070200080702000807020008070200081C
:1000A000070200080702000807020008070200080C
:1000B000070200080000000007020008000000001E
:1000C00007020008000000000702000807020008FD
:1000D000070200080000000000000000000000000F
:1000E00000000000000000000702000800000000FF
:1000F0000000000000000000000000000000000000
:1001000007020008000000000000000007020008CD
:1001100000000000000000000000000000000000DF
:1001200000000000000000000000000000000000CF
:1001300000000000000000000000000000000000BF
:10014000000000000000000000000000070200089E
:1001500000F002F800F03AF80AA090E8000C82449F
:100160008344AAF10107DA4501D100F02FF8AFF27C
:10017000090EBAE80F0013F0010F18BFFB1A43F085
:1001800001031847D4040000F4040000103A24BF0F
:1001900078C878C1FAD8520724BF30C830C144BFEC
:1001A00004680C607047000000230024002500262E
:1001B000103A28BF78C1FBD8520728BF30C148BFCA
:1001C0000B6070471FB51FBD10B510BD00F031F8B2
:1001D0001146FFF7F7FF00F089F900F04FF803B47C
:1001E000FFF7F2FF03BC00F057F800000948804712
:1001F00009480047FEE7FEE7FEE7FEE7FEE7FEE709
:10020000FEE7FEE7FEE7FEE704480549054A064B20
:100210007047000011030008510100086800002029
:1002200068080020680400206804002070477047B8
:100230007047754600F02CF8AE46050069465346F7
:1002400020F00700854618B020B5FFF7DDFFBDE8B8
:1002500020404FF000064FF000074FF000084FF02D
:10026000000B21F00701AC46ACE8C009ACE8C009BE
:10027000ACE8C009ACE8C0098D46704710B504462B
:10028000AFF300802046BDE81040FFF7A8BF000094
:10029000004870470800002001491820ABBEFEE767
:1002A00026000200704700BFFEE7704700BFFEE770
:1002B00010B540F2125000F031F94FF4E063002223
:1002C00001210D4800F0ACF84FF4E0630022114624
:1002D000094800F0CCF84FF48071074800F09CF812
:1002E0004FF40071044800F097F84FF48061024821
:1002F00000F092F810BD00000004004800BFFEE7C7
:1003000070477047704710B500F07AF810BD0000D4
:1003100010B52A48006840F001002849086000BF75
:100320002648006800F002000028F9D02348406801
:10033000234908402149486008464068214908404F
:100340001E4948600846406820F44000486008465E
:10035000006B1D49084019490863084600681B499D
:100360000840164908600846C06A19490840134900
:10037000C8620846006B40F2031188430F490863C6
:100380000846006B20F4803008630846006B20F0BC
:10039000004008630846406B20F0010048630748AE
:1003A000C030006820F48030C1F8C00000208860B0
:1003B0000249CC31086000F023F910BD0010024062
:1003C0000C00FF08FFFFC277BFFFFFBFFFFFF2FE79
:1003D000F0FFFF3F00BFFEE710B5002804DB0A076F
:1003E000130E054A135406E00A07140E034A00F0E0
:1003F0000F031B1FD45410BD00E400E018ED00E013
:100400000448006820B103480068401E01490860A4
:1004100070470000040000208162704781617047CE
:10042000F0B504460D4616462168E268002019E042
:10043000012787401F409FB14FEA400C032707FA6E
:100440000CF7B943470005FA07F739434FEA400C68
:10045000032707FA0CF7BA43470006FA07F73A43AF
:10046000471CB8B21028E3D32160E260F0BDF0B5BC
:1004700004460E46012E03D167681F43676002E001
:1004800067689F436760A1684FF6FF77BA4216D14D
:10049000E56B00200EE0012787401F4047B14FEA7F
:1004A000400C032707FA0CF73943012787403D43E7
:1004B000471CB8B21028EED3A160E56314E0002019
:1004C0000FE0012787401F404FB14FEA400C032740
:1004D00007FA0CF7B943470002FA07F73943471CFC
:1004E000B8B21028EDD3A160F0BD000000F08CF888
:1004F000FFF7DEFE0EE04FF480710748FFF78EFF36
:100500004FF400710448FFF789FF4FF480610248FF
:10051000FFF784FFEFE7000000040048064A02EB03
:100520009011096800F01F0301229A401143024B09
:1005300003EB901211607047001002400020002170
:100540002C4A126842F480322A4B1A6000BF401CC9
:10055000284A126802F4003111B9B0F5006FF6D1E3
:10056000244A126802F4003202B97047214A5268E4
:10057000204B5A601A46526842F400525A601A469A
:10058000526842F480625A601A4652681A4B1A4006
:10059000184B5A601A46D26A22F04042DA621A4672
:1005A000D26A42F00102DA621A465268134B1A43C9
:1005B000104B5A601A46126842F080721A6000BFEF
:1005C0000C4A126802F00072002AF9D0094A5268F7
:1005D00022F00302074B5A601A46526842F00202A8
:1005E0005A6000BF034A526802F00802002AF9D09C
:1005F00000BFBAE700100240FFFFC27700002908E1
:1006000010B5FFF79BFF10BD10B5124800684FF4FE
:100610007A71B0FBF1F4601EB0F1807F01D301204C
:100620000FE0601E4FF0E02148610F214FF0FF30D6
:10063000FFF7D2FE00204FF0E0218861072008611B
:10064000002008B100BFFEE70021481EFFF7C4FEEE
:1006500010BD000000000020780600080000002007
:10066000080000008C010008800600080800002037
:1006700060080000A801000800F36F0600000000F9
:04000005080001519D
:00000001FF
